S016000042727578415F58706C61696E65642E7372656398
S1130000C05B0020713000006F3000006F300000D2
S113001000000000000000000000000000000000DC
S11300200000000000000000000000006F3000002D
S113003000000000000000006F3000006F3000007E
S11300406F3000006F3000006F3000006F30000030
S1130050A11800006F3000006F3000006F30000006
S11300606F3000000D1E00001D1E00002D1E00003C
S11300703D1E00004D1E00005D1E00006F3000009C
S11300806F3000006F300000312D0000412D000062
S1130090512D0000612D0000712D0000ED0E0000B7
S11300A06F3000006F3000006F3000006F300000D0
S11300B00000000010B5064C2378002B07D1054B37
S11300C0002B02D0044800E000BF0123237010BDC0
S11300D0340100200000000060F90000084B10B556
S11300E0002B03D00749084800E000BF0748036815
S11300F0002B00D110BD064B002BFBD09847F9E72D
S1130100000000003801002060F9000060F90000E0
S11301100000000030B585B0040000230393056897
S11301202F4B98472B79002B56D101332B712D4B34
S113013098479F2201AB1A706279D10900230029E4
S113014004D15309DB0128498C4663441F21114023
S113015001228A405A61012201A92068234B984751
S11301600023032203A92068214DA8476279D109FD
S11301700023002904D15309DB011B498C46634445
S11301801F21114001228A409A61002322681371C1
S11301902379092B15D89B00164AD3589F46164B32
S11301A012E0164B10E0164B0EE0164B0CE0164B0B
S11301B00AE0164B08E0164B06E0164B04E0164B1B
S11301C002E0002300E0154B039A9A4202D0142067
S11301D005B030BD0020FBE7024B98470520F7E748
S11301E0AD170000ED17000000440041E1120000CB
S11301F0C5110000DCB400001F4300001F440100CF
S11302001F4502001F4501001F4602001F46030050
S11302101F8600001F4701001F4800001F650000E3
S1130220F0B585B004000E0001921F005A1803793E
S1130230092B15D89B003249CB589F468023DB02FB
S113024012E080231B030FE080235B030CE0802378
S11302509B0309E08023DB0306E080231B0403E007
S1130260002301E080235B0217209A4201D905B0E4
S1130270F0BD2568234B98472B79002B3CD10133E3
S11302802B71214B98470B2302AA1370D670330AA3
S11302909370360C56706279D1090023002904D179
S11302A05309DB0119498C4663441F211140012283
S11302B08A405A61052202A92068154B9847002FED
S11302C013D16279D1090023002904D15309DB0138
S11302D00E498C4663441F21114001228A409A61D1
S11302E0236800221A710020C1E700233A00019913
S11302F02068084DA847E4E7034B98470520B6E774
S113030004B50000AD170000ED17000000440041E3
S1130310E1120000C5110000F0B5DE4657464E4616
S11303204546E0B585B005000E0001921F005A183D
S11303300379092B15D89B00AE49CB589F468023DF
S1130340DB0212E080231B030FE080235B030CE03D
S113035080239B0309E08023DB0306E080231B0446
S113036003E0002301E080235B0217209A4206D9B0
S113037005B03CBC90469946A246AB46F0BD2C68FD
S11303809D4B98472379002B00D02EE10133237134
S11303909A4B9847062302AA13706A79D10900235D
S11303A0002904D15309DB0195498C4663441F217C
S11303B0114001228A405A61012202A92868914B06
S11303C098476A79D1090023002904D15309DB0134
S11303D08B498C4663441F21114001228A409A6153
S11303E0FF22324080235B009B1A1A1C9BB2BB4243
S11303F000D93A1C93B29A46022302AA1370D6700B
S1130400330A9370330C53706A79D109002300299D
S113041004D15309DB017A498C4663441F211140FE
S113042001228A405A61042202A92868754B984720
S11304305346002B45D16A79D1090023002904D100
S11304405309DB016E498C4663441F21114001228C
S11304508A409A612B68196801220B7E1342FCD0F2
S11304606A79D1090023002904D15309DB016449C5
S11304708C4663441F21114001228A405A612B6833
S11304801B681A7ED20701D505229A622868026881
S11304900421137E0B42FCD0137E00245B0709D594
S11304A0538B5B0701D5042353838379012B0ED02F
S11304B0946AE4B20121002398460420B4462E0035
S11304C010E05246019928684E4B9847B3E7936A67
S11304D0DB05DC0DEEE7AB79012B1AD0946AE4B2AC
S11304E021421AD033681A68137E0B42FCD0137E63
S11304F00B4201D04346936235682A68137E034257
S1130500FCD0137E0342EBD0538B0342E3D05083E1
S1130510E1E7946AE405E40DE2E7350066466A79AA
S1130520D1090023002904D15309DB0134498C4645
S113053063441F21114001228A409A611020A306BE
S11305404FD45346FF1ABBB21900019A91460020BA
S1130550002B46D01F239B4601242A4B9846534622
S113056001938A4658E01A0049462868254B984763
S1130570A4E0906AC005C00DE1E0BB79012B1AD05C
S1130580906AC0B204421AD02B681A68137E2342C0
S1130590FCD0137E234201D0002393622F683A6873
S11305A0137E0B42FCD0137E0B42EBD0538B0B42D9
S11305B0E3D05183E1E7906AC005C00DE2E76B79AF
S11305C0D9090022002904D15A09D2010C498C46C8
S11305D0624459460B40210099409161830613D52A
S11305E010202B6800221A71C2E6044B984705209C
S11305F0BEE6C04630B50000AD170000ED170000A0
S113060000440041E11200005346019A9B1A9BB238
S11306109A46002B00D194E002AB06221A706B7943
S1130620D9090022002904D15A09D20146498C462D
S1130630624459460B40210099405161220002A9AD
S11306402868C0476B79D9090022002904D15A09C6
S1130650D2013D498C46624459460B4021009940E1
S11306609161019A94466644E144574680235B00B5
S11306709A4501D9354B1F88BBB20193022302AAC4
S11306801370D670330A9370330C53706B79D90995
S11306900022002904D15A09D2012B498C46624414
S11306A059460B40210099405161042202A928684F
S11306B0274B9847019B002B00D054E76B79D9094D
S11306C00022002904D15A09D2011F498C466244F0
S11306D059460B402100994091612B681A68137E9A
S11306E02342FCD06B79D9090022002904D15A098C
S11306F0D20115498C46624459460B402100994069
S113070051612B681B681A7E224201D005229A622D
S11307102B689C461A680421137E0B42FCD0137E7E
S113072000205B070BD5538B5B0701D50423538350
S113073063469B79012B00D11BE7906AC0B2042168
S113074022E700204DE7C046004400412CB50000DC
S1130750E1120000F0B583B004000568644B9847CB
S11307602B79002B00D0BEE001332B71614B9847ED
S113077006236A4613706279D1090023002904D143
S11307805309DB015C498C4663441F21114001225B
S11307908A405A61012269462068584B9847627919
S11307A0D1090023002904D15309DB0152498C46A5
S11307B063441F21114001228A409A61C7236A467B
S11307C013706279D1090023002904D15309DB0194
S11307D049498C4663441F21114001228A405A61D1
S11307E0012269462068454B98476279D109002364
S11307F0002904D15309DB013F498C4663441F217E
S1130800114001228A409A612368196801220B7EF3
S11308101342FCD06279D1090023002904D1530981
S1130820DB0135498C4663441F21114001228A4073
S11308305A6123681B681A7ED20701D505229A6281
S1130840206802680421137E0B42FCD0137E00252D
S11308505B0709D5538B5B0701D504235383837945
S1130860012B05D0956AEDB20121002704200AE08E
S1130870956AED05ED0DF7E7B379012B19D0956A6B
S1130880EDB2294219D023681A68137E0B42FCD0BA
S1130890137E0B4200D0976226683268137E0342AF
S11308A0FCD0137E0342ECD0538B0342E4D050833C
S11308B0E2E7956AED05ED0DE3E76279D1090023DE
S11308C0002904D15309DB010B498C4663441F21E1
S11308D0114001228A409A61A806C00F00012368D2
S11308E000221A7102E0034B9847052003B0F0BDC3
S11308F0AD170000ED17000000440041E1120000B4
S113090070B582B004000D000668354B9847337902
S1130910002B60D101333371324B984706236A466A
S113092013706279D1090023002904D15309DB0132
S11309302D498C4663441F21114001228A405A618B
S1130940012269462068294B98476279D10900231E
S1130950002904D15309DB0123498C4663441F2138
S1130960114001228A409A613C236A1E95416D42DE
S11309702B406A46D37101236A4613706279D10908
S11309800023002904D15309DB0117498C46634431
S11309901F21114001228A405A61012269462068C0
S11309A0124DA84701226B46D91D2068A8476279D9
S11309B0D1090023002904D15309DB010A498C46DB
S11309C063441F21114001228A409A612368002256
S11309D01A71002002E0034B9847052002B070BD55
S11309E0AD170000ED17000000440041E1120000C3
S11309F030B583B0040005681C4B98472B79002B55
S1130A002ED101332B711A4B9847AB236A461370CE
S1130A106279D1090023002904D15309DB01154966
S1130A208C4663441F21114001228A405A610122ED
S1130A3069462068104B98476279D1090023002940
S1130A4004D15309DB010B498C4663441F21114037
S1130A5001228A409A61236800221A71002002E070
S1130A60034B9847052003B030BDC046AD170000C6
S1130A70ED17000000440041E112000010B500220F
S1130A8000230270427000214280017103760262E9
S1130A90C26182600373C0246401C481037443741B
S1130AA08374C37403752A24035543758375063C04
S1130AB00355C2840285C1752B23C1540133C1542B
S1130AC010BD0000F0B5D6464F464646C0B596B0B8
S1130AD0070016000160C64A106A80235B020343C4
S1130AE013620B780520DB0705D516B01CBC9046B5
S1130AF09946A246F0BD0B7817309B07F5D473785E
S1130B003B71002B04D1BB4A136C04210B431364C7
S1130B100023BB60FB603B61BB76FB763B833B778A
S1130B20B54B1F602A23F35C002B05D1337D002BCA
S1130B3002D101337B7701E000237B773B68984641
S1130B4033786A46137069461E20AC4B98471E20C2
S1130B50AB4B98472C23F25C002A54D0013BF55C44
S1130B60337BEB18DBB2D118C9B28B4221D25219B4
S1130B70D3B29946A34B9A4603E00135EDB24D45F5
S1130B8017D00F242C40337BE41850229E4902A82E
S1130B90D047132CF1D8A40002ABE05801A90023DC
S1130BA04B70CB708B7001330B70C0B2974B98476E
S1130BB0E3E7F4895022944902A8924B9847132CF6
S1130BC013D9737D9B00DBB242461370B37DDB0106
S1130BD072781343DBB2424653703379342B00D915
S1130BE07BE19B008A4AD3589F46A40002ABE0589D
S1130BF001A900234B70CB708B7001330B70C0B212
S1130C00824B9847DDE7347B50227F4902A87D4B15
S1130C109847132C15D9F48950227B4902A8794BA3
S1130C209847132CCDD8A40002ABE05801A90023A7
S1130C304B70CB708B7001330B70C0B2734B984701
S1130C40BFE7A40002ABE05801A900234B70CB70AE
S1130C508B7001330B70C0B26C4B9847DBE70423F5
S1130C60102402211AE0717C337C102416E0062340
S1130C701024012112E00823102400210EE0002397
S1130C80302400210AE000232024002106E0002370
S1130C900024002102E00223102401210901702212
S1130CA00A40134342469370F37D17203F2B00D92B
S1130CB01BE7D3703A68537E5BB2002BFBDBF37CFB
S1130CC0728813432422B25CD2001343327D920013
S1130CD01343B27C52001343234342469380337E32
S1130CE0002B20D0102C00D1D9E000D898E0202C83
S1130CF000D1B6E0302C16D1F27C002A0AD0F26979
S1130D0080321720FF2A00D9EFE6326A8032FF2AA8
S1130D1000D9EAE61720F269FF2A00DDE5E6326A27
S1130D20FF2A00DDE1E639684A7E52B2002AFBDB85
S1130D30424613723A68537E5BB2002BFBDBB38BE3
S1130D40424693833A68537E5BB2002BFBDB338CC1
S1130D50424613842C23F35C002B05D0013BDBB209
S1130D6017200F2B00D9C0E62B22B15C17200F29C6
S1130D7000D9BAE63868427E52B2002AFBDBF28917
S1130D80307B0243B068024309050A431B04134342
S1130D90424613612A23F35C13750F2393751533AD
S1130DA0F35C002B12D0F38C1A4A1720934200D91B
S1130DB09BE642469384328D80231B01D318154948
S1130DC09BB28B4200D990E64346DA84124B1B68EF
S1130DD05B01E022D2001340104A516849011268B5
S1130DE0D20E0A43D2B213434246138500207CE656
S1130DF00004004000080040A4240020412B00000F
S1130E00B52A0000F7A200002CB60000392C00001F
S1130E1058B50000FF0F00002460800020608000AF
S1130E20002C00D07FE7F27C002A0FD0F2698021E9
S1130E3009018C4662442A4917208A4200D954E6A3
S1130E40326A624426498A4200D94EE6244A17206F
S1130E50F169914200DD48E6316A914200DD44E6E1
S1130E6061E7F27C002A0FD0F269802189008C4668
S1130E7062441C4917208A4200D936E6326A624429
S1130E8018498A4200D930E6164A1720F16991427E
S1130E9000DD2AE6316A914200DD26E643E7F27C72
S1130EA0002A0FD0F269802109028C4662440E495F
S1130EB017208A4200D918E6326A62440A498A42F3
S1130EC000D912E6084A1720F169914200DD0CE6C8
S1130ED0316A914200DD08E625E7172005E6C046A1
S1130EE0FF0F0000FF030000FFFF000070B52F4B51
S1130EF01D682B681A7EDC7D1440E20716D4630754
S1130F0008D504232A681376EB7E9B0702D5AB7EB3
S1130F109B0742D4A30708D502232A681376EB7EE5
S1130F205B0702D5AB7E5B073BD470BD01221A760A
S1130F302A68537E5BB2002BFBDB69698B1C6B61F7
S1130F40538B9BB20B802B8B013B9BB22B83002BCF
S1130F5011D06B7F002BD2D02A68537E5BB2002B5A
S1130F60FBDB137B02210B4313732A68537E5BB2B2
S1130F70002BFBDBC3E701232A6893752B7F052B2A
S1130F80BDD100232B77EB7EDB07B8D5AB7EDB0727
S1130F90B5D52800AB689847B1E72800EB689847B7
S1130FA0B8E72B6928009847BFE7C046A42400206F
S1130FB0F0B58BB005000C00160029600B681C20EE
S1130FC09B0701D50BB0F0BD0B681738DB07F9D4CC
S1130FD008006F4B98476F4A116A871C0123BB4076
S1130FE00B43136209A92427F35D0B701430C3B2B9
S1130FF001931800684B98470198684B9847F05D37
S11310000021674B98473378012B3FD03378002B6E
S113101003D123680822134323602B000C332900D7
S11310202831002204C38B42FCD10023EB62AB6263
S11310300024AB862B863633EC540133EC54013355
S1131040EC54353B6B722C712868514B9847070060
S11310505449554B9847BF00544BFD502F6804AB7F
S113106080221A705C707F3A9A70DC703378002B9F
S113107002D1002204AB9A70B36A0593F36A069313
S1131080336B0793736B089300240BE023680C22E3
S113109013432360BAE73800454B98470AE001340C
S11310A0042C10D0E1B2A30002AA0C201218D058CC
S11310B00028F0D0431CF2D004A90870000CC0B280
S11310C03C4B9847EBE733786B71337CAB71B37C63
S11310D0EB71337D2B72002202ABDA803378012B63
S11310E012D03378002B26D1B069B28B7B6AF17FA2
S11310F00904B47F2143194379622023F35C002B54
S11311001BD040231A4318E02868214B9847143019
S1131110C0B2294B9847010002AB9A1DB069274B16
S1131120984703001720002B00D04BE702AB06338F
S11311301B783B73D5E7002200207368B1680B432A
S1131140F1680B430343317C0A43717C002903D1CA
S11311501B498978890701D580210B43B17C00297B
S113116002D0802189020A43F17C002902D0802127
S113117089000A43317D002902D0802189010A4374
S113118039680B433B607B681A437A60002019E797
S1131190651D000000040040412B0000B52A00003A
S11311A0A11B0000F1140000A11D0000EC2400208C
S11311B0ED1B0000392C00005D2B0000E31A000039
S11311C000200041F0B5D6464F4680B583B08C462A
S11311D03825465D333D052E75D01235002A72D070
S11311E0C4790535002C6ED04479002C03D10468F1
S11311F0257EA9070AD4013A94B2002604220221CA
S113120089460127DB05DB0D9A4637E00225257662
S1131210F1E701680B7E3B42FCD00B7E3B4209D0D8
S113122053468B622DE00B7E4D462B4238D10B7E0C
S1131230134245D001680B7E1342FCD00B7E13424F
S113124040D04B8B00250195134202D04A831E23C4
S113125001938379012B27D08B6ADBB20199002992
S113126037D1751CADB261468B55817901291FD0E8
S11312702E00013CA4B2184B9C421FD04379012B91
S1131280C7D04379002BD5D101680B7E1342CAD154
S1131290124B0D7E1542C6D1013B002BF9D1C2E79A
S11312A002230B7604250EE08B6ADB05DB0DD5E704
S11312B00236B6B21B0A61464B55DAE7019D02E0DD
S11312C0122500E01025280003B00CBC91469A4674
S11312D0F0BD019DF7E7C046FFFF000010270000A6
S11312E0F0B5DE4657464E464546E0B583B0382352
S11312F0C45C333B052C02D01233002A07D11800FA
S113130003B03CBC90469946A246AB46F0BD437937
S1131310002B03D103681C7EA4070AD4934600243F
S113132001230225AC460235A846013A92B28A4608
S113133023E002241C76F1E7357E61460D422ED16E
S1131340357E1D4200D1C2E00668357E1D42FCD0C8
S1131350671CBFB251460D5D8179012923D0ADB21E
S11313603C00377E1F4202D0ED05ED0DB562551EDF
S1131370ADB2C679002E1DD12A005A4DAA4270D0B2
S11313804579002DE0D10668357E1D42D4D1564DF5
S1131390377E1F42D0D1013D002DF9D1CCE7022385
S11313A033760233ABE70234A4B25146CF5D3F0239
S11313B03D43D6E751464579002D37D14B4D019138
S11313C012E00234A4B24946019F795C0902009FED
S11313D00F431BE0013A92B20668377E41460F4242
S11313E01BD1013D002D18D0002AF5D00668377EA8
S11313F01F42F1D0671CB9B289460199095D009179
S113140081790129DDD069460F884C46317E194225
S1131410E0D0FF05FF0DB762DCE70199357E674632
S11314203D4218D1357E4646354252D00668357E57
S113143047463D42FBD0357E3D4207D0758B3D4249
S113144000D077838579012D09D0B56A5D46013DC9
S1131450ADB2AB4669E70223337602334FE7B56A90
S1131460F4E74379012B0BD0002B34D1C279002A45
S113147000D144E704245B465D46002B19D13EE7C6
S1131480016802220B7E1342FCD0002337E70B7E57
S1131490234222D00B7E234207D04B8B234200D021
S11314A04C838379012B10D08B6A013DADB2002DA2
S11314B015D001680B7E2342E9D10B4B0A7E2242F0
S11314C0E5D1013B002BF9D1E1E78B6AEDE712236B
S11314D015E7122313E7002311E712230FE7002374
S11314E00DE7C046FFFF0000102700001127000091
S11314F0F8B58000854BC45826683723E35C362250
S1131500A75C1F40337EB57D1D40EB072ED5637964
S1131510012B25D0002B29D1637A002B26D02168FA
S1131520E26A1378DBB2501CE062A079012800D192
S113153069E09BB2DB05DB0D8B62A38E013B9BB2A2
S1131540A386A38E9BB2002B10D101333375637A2B
S1131550012B0BD1E379002B08D10233B37505E0DD
S1131560637A002B3ED0637A002BD8D16B0711D558
S1131570738B5B0751D5637A012B08D01E22382365
S1131580E254353B6372023333753B0741D4B36A8B
S113159004237383AB0715D56379002B0ED107336E
S11315A03375053B3376013363720023A3862386A8
S11315B038330022E254FB0600D57FE06379012B27
S11315C000D17FE02B0708D56379002B05D10833C0
S11315D033753376BB0600D58AE06DB2002D00DA90
S11315E08AE0F8BD4A4B1B88B362638E013B9BB211
S11315F06386638E9BB2002B01D10133337563790B
S1131600012BB0D086E75078000203430232E26235
S113161090E72000A3699847B9E7637A012B27D0A4
S113162023689B6ADB05DB0DDAB2A16A0A70A26A41
S1131630511CA162A179012933D0238E013B9BB2B5
S11316402386238E9BB2002BA4D100223833E2548C
S1131650343B3375637A022B29D0637A002B00D094
S113166098E7BB0700D495E720002369984791E7E2
S113167023689B6A638E013B9BB26386638E9BB235
S1131680002B00D086E70433337500223433E25450
S1131690353B6372FB0700D47CE72000E36898477E
S11316A078E71B0A5370A36A0133A362C5E77B077B
S11316B000D46FE72000636998476BE72000E36973
S11316C098477BE7637A012B00D086E7E379002B08
S11316D000D082E70233337501336372002235335D
S11316E0E254FB0700D46DE72000E368984769E7FC
S11316F02000236A984770E78023337533767B068E
S113170000D46EE7636A200098476AE7EC2400205F
S1131710A824002070B50020084B98470500084C09
S1131720FA218900A047074B186007492800A04701
S1131730064B18600522064B1A6070BD292A00006A
S1131740519F00000000002040420F0004000020D0
S113175010E000E030B5084B1C68084A00258021E1
S11317604902013807D3002CFBD0546095601368FC
S11317700B42FCD0F5E730BD0400002010E000E08F
S113178030B5084B1C68084A0025802149020138FD
S113179007D3002CFBD05460956013680B42FCD037
S11317A0F5E730BD0000002010E000E00C4B1B68A2
S11317B0002B06D1EFF31083002B07D00022094B36
S11317C01A70074A136801331360704772B6BFF387
S11317D05F8F0022044B1A700132024B1A70F0E73B
S11317E0500100205401002008000020084B1A6812
S11317F0013A1A601B68002B09D1064B1B78002B99
S113180005D00122044B1A70BFF35F8F62B6704794
S1131810500100205401002008000020F0B583B0DE
S113182001AC012565700027A770257021003E20BA
S1131830064EB0478022D205054B9A612770657029
S113184021000F20B04703B0F0BDC046051A0000C8
S1131850804400411723002A01D0180070478B00F0
S1131860064A9B58002B03D0834205D01D23F4E77E
S1131870890088500023F0E70023EEE7AC24002021
S11318801723002901D01800704700221F2800D810
S1131890024A01238340D3600023F4E70018004088
S11318A070B50022104B1A70002310491F25104EEA
S11318B00D4C0AE00D4908E023780133DBB22370B4
S11318C00F2B10D800211F2BF4D928001840012217
S11318D0824008691042EFD00A619B009B59002B9B
S11318E0EAD09847E8E770BDAA2400200018004019
S11318F0AC240020044A137802210B43137053785C
S11319005BB2002BFBDB70470018004000B583B0CE
S1131910124A936940210B43936101A900230B7080
S113192005200F4B984705200E4B98470E4A137815
S113193001210B43137053785BB2002BFBDB0B4B81
S113194019004031002204C39942FCD11022084BF3
S11319501A60084B984703B000BDC046000400401D
S1131960412B0000B52A000000180040AC240020E0
S113197000E100E0F5180000002303604360012249
S11319800272427283720233C3727047F0B583B03D
S113199005000C0001A900234B70CB7023790B7058
S11319A0237A8B702078154B984700201F2D00D880
S11319B0134807222A409200E77AA37A002B01D029
S11319C008231F43EB089B00C31899690F26964010
S11319D0B14397403A000A439A61637A002B06D1D7
S11319E043690122AA409343436103B0F0BD4269B5
S11319F00123AB4013434361F7E7C046392C000091
S1131A000018004000B583B001AB80221A700A7838
S1131A105A704A789A708A78DA701900014B98479C
S1131A2003B000BD392C0000F0B5DE4657464E46E3
S1131A304546E0B587B08046049116001F00002299
S1131A40002300218B463F240120210000960197AA
S1131A505C4603944446059413E02024641A05006C
S1131A60E540A84614E0009C019D121BAB415C4676
S1131A704D462C43A346039C45462C43039401390D
S1131A8025D3202464420C19E7D40500A540A846B8
S1131A9004008C40A14692185B4114001D00059E71
S1131AA04F463E40B446049E47463E40B2466646D4
S1131AB057463E4303D00600264332002B00009CC9
S1131AC0019D9D42DBD8CED19442D8D8CBE7039B6D
S1131AD05846190007B03CBC90469946A246AB460E
S1131AE0F0BD10B5490840230024814202D21800F9
S1131AF010BD1C00091A631C9BB28842F9D940230B
S1131B00FF2CF4D814800023F1E70000F0B583B073
S1131B100F00160008AA117804004C434022BC426E
S1131B2002D9100003B0F0BD002B14D1020008004C
S1131B300021194CA04701003A0000230020174C53
S1131B40A04700220123121A8B41120C1B041A43D2
S1131B5032800022E5E70022012BF9D10A0000239C
S1131B6000210D4CA04702000B00009201933800A5
S1131B7000210A4CA047050080239B014022984283
S1131B80CFD8790FF800009A019BA047EA00821A87
S1131B90D2B252032A43DBE73DA20000291A000017
S1131BA010B582B004000E4B1B78002B07D000291F
S1131BB005D10B4B5B78834210D01D200CE001A9AA
S1131BC00C701320074B98471320074B9847044B7E
S1131BD05C7001221A70002002B010BD0020FBE7E7
S1131BE058010020412B0000B52A0000404B9842C8
S1131BF031D00AD93F4B98424DD03F4B98425AD0EE
S1131C003E4B984237D0002070473D4B98420CD051
S1131C103C4B9842F7D1012917D000295DD0022905
S1131C2015D0032915D00020EEE7012907D000299B
S1131C3051D0022905D0032905D00020E4E7324819
S1131C40E2E73248E0E73248DEE73248DCE7324890
S1131C50DAE73248D8E7012907D000293FD0022922
S1131C6005D0032905D00020CEE72D48CCE72D4828
S1131C70CAE72D48C8E7012907D0002931D0022935
S1131C8005D0032905D00020BEE72848BCE7284832
S1131C90BAE72848B8E7012907D0002923D0022948
S1131CA005D0032905D00020AEE72348ACE723483C
S1131CB0AAE72348A8E7012907D0002915D002295B
S1131CC005D0032905D000209EE71E489CE71E4846
S1131CD09AE71E4898E71E4896E7032094E71D48B4
S1131CE092E71D4890E71D488EE71D488CE7C046E3
S1131CF00010004200180042001C00420014004280
S1131D0000080042000C0042030005000300060026
S1131D10030007000300010003001E0003001F006E
S1131D200300090003000A0003000B000300110074
S1131D30030012000300130003000D0003000E0053
S1131D4003000F000300170003001800030019002C
S1131D5003000400030008000300100003000C004B
S1131D600300160030B587B00B4B6A4632CB32C243
S1131D7032CB32C2009B83420BD001239A006946C6
S1131D805258824206D00133062BF7D1002007B007
S1131D9030BD0023D8B2FAE77CB6000070470000DB
S1131DA0F0B50A4B1B78002B0CD1094F094E0A4D94
S1131DB00024DE515A1914600433182BF9D101227E
S1131DC0024B1A708000024BC150F0BD5A01002032
S1131DD05C0100209D1D0000EC24002000B583B0B0
S1131DE009236A461370013353700133937001332E
S1131DF0D3700133137101335371034B98476B460E
S1131E00185603B000BDC046651D000010B5024B56
S1131E101B680020984710BD5C01002010B5024BE0
S1131E205B680120984710BD5C01002010B5024B8F
S1131E309B680220984710BD5C01002010B5024B3E
S1131E40DB680320984710BD5C01002010B5024BED
S1131E501B690420984710BD5C01002010B5024B9B
S1131E605B690520984710BD5C010020F0B5DE4693
S1131E7057464E464546E0B591B005000C001600A5
S1131E8029600800BC4B9847020023680520DB0743
S1131E9006D511B03CBC90469946A246AB46F0BD6F
S1131EA0236817309B07F4D4B449086A971C0123AC
S1131EB0BB4003430B620FA92D27F35D0B70143253
S1131EC0D3B202931800AE4B98470298AD4B984793
S1131ED0F05D0021AC4B9847F37A6B712423F35CDB
S1131EE0AB712523F35CEB71F37E2B72337F6B7242
S1131EF02B6898461800A04B9847143000220E23F4
S1131F0006A98C4663441A80328A02928023DB013C
S1131F109A4200D19EE00FD9C023DB01029A9A4273
S1131F2000D192E080231B029A4200D01FE10323D8
S1131F3006930023079308E080239B019A4200D074
S1131F4015E1102306930F3B079333680593F36859
S1131F50039373690493337E9B462623F35C9A466A
S1131F6073689946002B00D1A0E080235B05994556
S1131F7000D184E0737E002B02D0B37E424693737B
S1131F802A68029FD369002BFCD10E3306AA94461B
S1131F9063441B8842469381059B039A1343049A26
S1131FA013434A4613431F435B461B021F435346D6
S1131FB05B071F432723F35C002B01D104331F432A
S1131FC0737E9B02327F52021343727F12021343C9
S1131FD02422B25C520413432522B25C120413433C
S1131FE0B17AF27A114319433389FF2B00D181E08E
S1131FF080225204174319432C23F35C002B03D192
S1132000624B9B789B0701D580231F432A68D369C1
S1132010002BFCD1434659602A68D369002BFCD1BC
S113202043461F600EAB80221A7000225A70DA7089
S11320309A70336B0A93736B0B93B36B0C93F36BC0
S113204002930D9300270AAE63E008230693073B2F
S113205007937AE733680593F368039373690493EA
S1132060337E9B462623F35C9A4673689946002B7D
S113207018D080235B05994501D0002025E0272353
S1132080F35C002B00D075E7336A1F00C0B2404BED
S1132090984701000E2206AB9C46624438003D4B33
S11320A0984712E008230693002307932723F35C41
S11320B0002B0ED0069B0093079B0E2206A98C468C
S11320C06244B16A306A344FB847002800D0E0E671
S11320D050E7336A1F00C0B22D4B98470100069B9E
S11320E00093079B0E2206A88446624438002A4FB8
S11320F0B847EAE7F37E002B00D17DE78023DB04B9
S11321001F4379E72000254B984707E00137042F48
S11321100DD0F9B2BB0098590028F3D0431CF5D078
S11321200EA90870000CC0B21D4B9847EEE70023BF
S1132130EB602B616B61AB61EB612B62AB626B6239
S11321400022EB85AB853033EA540133EA54013382
S1132150EA540133EA542868074B984704001149AC
S1132160114B9847A400114BE550002091E6102331
S1132170069300230793E8E6651D00000004004071
S1132180412B0000B52A0000A11B000000200041E3
S11321905D2B0000E31A00000D1B0000ED1B000086
S11321A0392C00003D230000A11D0000EC24002078
S11321B0C2791C23002A01D118007047C28D92B243
S11321C0173B002AF8D10368DA69002AFCD1198583
S11321D002211A7E0A42FCD00023EDE782791C23F7
S11321E0002A01D118007047828D92B2173B002A51
S11321F0F8D10268107E4007F4D5D369002BFCD1D6
S1132200538BDBB298061DD0980703D50223538362
S11322101833E7E7580703D5042353831A33E1E758
S1132220D80703D5012353831233DBE7D80603D53C
S1132230102353833233D5E79B0603D520235383DE
S11322402133CFE7138D0B800023CBE7F8B50600CD
S11322500C00150007680A4B9847F38D9BB2002BBE
S113226003D0084B98470520F8BDF585054B9847E2
S1132270B46205223323F254323BBB750020F3E7EA
S1132280AD170000ED170000F8B504000D001600AE
S113229007680F4B9847A38D9BB2002B03D00D4BBF
S11322A098470520F8BDA6850A4B98476562052224
S11322B03223E2542E3BBB75237A002B01D020231A
S11322C0BB75637A0020002BECD00823BB75E9E7CB
S11322D0AD170000ED170000931C9B00C318596054
S11322E03021012393401A00435C13434354704745
S11322F010B50122014B984710BDC0468922000049
S113230010B51723002A01D1180010BDC479053374
S1132310002CF9D0014B98470300F5E74D2200004B
S1132320002903D0012905D0172002E03223C05C24
S1132330C0B270473323C05CC0B2FAE7F8B580007E
S1132340624BC5582C68E369002BFCD1237EA67D23
S11323501E403023EB5C3122AF5C1F40F30722D5D3
S1132360EB8D9BB2002B1CD0AA6A1378DBB2511CF4
S1132370A962697901290ED09BB2DB05DB0D2385A7
S1132380EB8D013B9BB2EB85002B0CD10133237504
S11323900133A37507E0517809020B430232AA62A4
S11323A0EBE701232375B30706D502232375002227
S11323B03133EA54FB071AD4730765D5AB8D9BB24E
S11323C0002B5FD0638BDBB21A0714D43F22134077
S11323D0002B34D09A0711D51A223223EA54303B09
S11323E063837B0750D528006B6998474CE028002D
S11323F0EB689847E0E737221340E9E75A0705D529
S11324001E223223EA542E3B6383EAE7DA0705D51A
S113241013223223EA54313B6383E2E7DA0605D51B
S113242042223223EA54223B6383DAE720221A420F
S1132430D7D021323223EA54123B6383D1E7238D70
S1132440DB05DB0DDAB2696A0A706A6A511C6962DB
S11324506979012910D0AB8D013B9BB2AB85002B70
S113246012D10433237500222E33EA54BB070BD553
S113247028002B69984707E01B0A53706B6A0133E5
S11324806B62E8E704232375F30604D51023237550
S11324902376FB060ED4B30604D5202323752376B6
S11324A03B070BD4330704D5082323752376BB06D7
S11324B008D4F8BD2800EB699847ECE72800AB691D
S11324C09847EFE72B6A28009847F2E7EC240020AE
S11324D010B5082803D880001C4B1B589F460020C9
S11324E032E01B4B18692FE01A4B1B6A9B059B0FAC
S11324F01948D84028E0164B586925E0144B1B684E
S113250000209B0720D513491022CB681A42FCD027
S11325100F4B1A6824231340042B01D00F4813E0F7
S113252000200F4B98470A4B9B681B041B0C584315
S11325300AE05023074AD35C00205B0704D5044B10
S1132540D86801E08020000210BDC04694B60000A7
S1132550740100200008004000127A00006CDC02C4
S11325605D2B000070B50C490B6A047885784078BF
S11325700122104080014026B34303432A40D20184
S11325808020834313430322224012020348034062
S113259013430B6270BDC04600080040FFFCFFFF00
S11325A0F0B5DE4657464E464546E0B50100264B9B
S11325B09B469B8A457800784242424191468878FE
S11325C0CA7894460A7990464E7B0F7B8C7B8A6846
S11325D01E494A6101214A469200914604229343CE
S11325E04A46134342460A40D20090460822934387
S11325F04246134362460A40120194461022934312
S113260062461343084040012022934303430F4092
S1132610BF01402083433B430E40F60140308343D7
S11326203343793805402D02094803402B432140A8
S11326300903084803400B435A4693823CBC904626
S11326409946A246AB46F0BD000800407401002044
S1132650FFF8FFFFFFEFFFFF10B5037A9B061B0C8B
S113266042899205920D134318494B608379C279CC
S1132670134342888488224313434278D20113438C
S11326800B600378042B11D0202B0ED1037B9B0607
S1132690028A1343C28912040D490A4013430B4AA8
S11326A0936011680B4B0B43136010BD037B9B06B7
S11326B0028A1343C289120405490A401343034A98
S11326C09360136804210B431360EEE77401002048
S11326D00000FF0324040000082803D88000254BD1
S11326E01B589F46172044E0234A136A02210B43D8
S11326F0136200203DE0204A936902210B43936159
S1132700002036E01C4A138A02210B431382002066
S11327102FE0194A938A02210B439382002028E078
S113272016490B68022213430B60134B9A84190059
S11327300E32CB681A42FCD0104A91680E4BD96213
S113274052689A6200229A8419001032CB681A42A5
S1132750FCD00A4B1B689BB2074A9384002008E014
S1132760054944228B5C022003438B54002000E083
S113277000207047B8B60000000800407401002033
S1132780F0B5CE46474680B58FB0C222D200514B39
S11327909A60514A53681E218B431A390B43536084
S11327A0022201AB1A7000244C4DE0B201A9A847E3
S11327B00134252CF9D10AA80023037083708022E8
S11327C012028260C3700122027183730621417078
S11327D043730273424B98470520424B98473D4947
S11327E00222CB681A42FCD005AB0021002259809A
S11327F099809A71DA713F3159813E39D981033117
S113280019705A70384B1B689B0E3F2B5FD005A87C
S11328100372B723DB00038207230373334B984708
S113282004A80025457005708570314B9847062033
S11328302C4FB8472F4B984701AC01260296657080
S11328400623237025726572210001202A4B9946C4
S113285098470120294B98469847666065706572D1
S113286005232370267221000320C8470320C04794
S11328700323237021000020184B98470020204B8D
S113288098470720B8471349D022CB681340D02B70
S1132890FBD1104A938C80210B439384194A002363
S11328A0137253729372D37201A901224A604B705E
S11328B00B7207330B704A7200200F4B98470020AD
S11328C00E4B98470FB00CBC90469946F0BD203B88
S11328D09DE7C0460008004000400041412B000035
S11328E0A1250000D926000024608000592600009C
S11328F065250000092900002D290000E5290000B4
S1132900B52A000000040040064A936908210B43DD
S113291093610122044B1A7019000B781342FCD105
S11329207047C04600040040000C004070B506002B
S113293004000D782D0205434B78002B02D0802330
S1132940DB021D434B7A002B02D080231B031D4363
S11329504868012810D9431E184234D1022830D9BE
S11329600223002201325B009842FBD81202324358
S1132970140080235B031D430B7A002B02D08023B9
S11329809B031D43134A53785BB2002BFBDB124BB2
S11329909847124B1E700F4A53785BB2002BFBDB37
S11329A00C4B9C601A0053785BB2002BFBDB094A8A
S11329B05368802149020B401D435560084B9847DA
S11329C070BD0022D2E70402344380239B021D43DE
S11329D0D2E7C046000C0040AD170000080C0040D0
S11329E0ED17000010B504000B4A53785BB2002BBE
S11329F0FBDB0A4B98470A4B1C70074A53785BB2BF
S1132A00002BFBDB044A516880235B020B435360B9
S1132A10044B984710BDC046000C0040AD170000A1
S1132A20040C0040ED17000070B504001A4A5378F6
S1132A305BB2002BFBDB194B9847194B1C70164AF1
S1132A4053785BB2002BFBDB134E7068C004C00EDE
S1132A50144B98470500124B1C707668F602F60F6B
S1132A60114B1C700C4A53785BB2002BFBDB0A4BF6
S1132A709C682402240C0D4B9847002E07D1012C8E
S1132A8007D9210028000A4B9847050001E00134CA
S1132A90E540280070BDC046000C0040AD170000A2
S1132AA0040C0040D1240000080C0040ED17000085
S1132AB0519F000010B50400064B9847064B1C704C
S1132AC0064A53888021C9010B435380044B98471D
S1132AD010BDC046AD170000020C0040000C0040C1
S1132AE0ED17000010B504000F4B98470F4B1C70F6
S1132AF00F4A53881B05180F53880E490B40538007
S1132B0053880D490B40538011008022D2014B8819
S1132B101342FCD106494A88030206480240134383
S1132B204B80064B984710BDAD170000020C0040C7
S1132B30000C0040FFF0FFFFFFBFFFFFED17000098
S1132B4010B50C7824020443024B9847A4B2024BFC
S1132B505C8010BDE52A0000000C004010B50400A4
S1132B60064B9847064B1C70064B5C882405240FC3
S1132B70054B98472000054B984710BDAD17000042
S1132B80020C0040000C0040ED170000292A000050
S1132B9030B5D378002B35D11378802B29D01B0680
S1132BA080246402234354780225AC4306D19478EC
S1132BB0002C20D18024A402234341605478013C9A
S1132BC0012C1CD90D042D0CA024E4052C431C431A
S1132BD084620D0CD02424062C431C438462D478D4
S1132BE0002C22D15B031CD59378012B1ED04161AC
S1132BF017E00023D7E7C024E4022343DDE70D4CAC
S1132C002340DFE741600C04240CA023DB052343AD
S1132C1083620C0CD0231B0623438362D378002BDE
S1132C2003D15378013B012B02D930BD8161F8E710
S1132C308160FAE7FFFFFBFF10B50A00C10900231A
S1132C40002904D14309DB0105498C4663441F2450
S1132C502040012181401800024B984710BDC04616
S1132C6000440041912B00007047000010B5054B53
S1132C709847054B9847054B9847054B9847054B94
S1132C80984710BD812700001D180000692C000022
S1132C900D190000692C0000931C9B001950022A96
S1132CA009D0032A0CD0012393401A00037E134356
S1132CB0037600207047037E102213430376F8E75F
S1132CC0037E202213430376F3E7000070B58000EF
S1132CD0164BC45823689D7B227E637E13401D409F
S1132CE0EB0706D4AB070BD4EB0610D4AB0615D414
S1132CF070BD2000A3689847012322689373F1E70D
S1132D002000E3689847022322689373ECE72000CD
S1132D1023699847102322689373E7E720006369C7
S1132D209847236820229A73E2E7C04604250020CE
S1132D3010B50020014B984710BDC046CD2C0000B3
S1132D4010B50120014B984710BDC046CD2C0000A2
S1132D5010B50220014B984710BDC046CD2C000091
S1132D6010B50320014B984710BDC046CD2C000080
S1132D7010B50420014B984710BDC046CD2C00006F
S1132D8030B587B001A90C4B0A0032CB32C212CB4A
S1132D9012C2019B98420BD0012301A99A005258F8
S1132DA0824206D00133052BF8D1002007B030BD94
S1132DB00023D8B2FAE7C046DCB60000F0B589B00B
S1132DC004000D0016000800854B9847070006AB69
S1132DD01B221A7001325A709A700132DA701A7119
S1132DE003AA804B143303CB03C21B881380002334
S1132DF0A360E3602361636123766376BA007A4B50
S1132E00D4502560B378082B06D023712B88052075
S1132E10DB0705D509B0F0BD1720FA07FAD5F4E7AA
S1132E20EB7B1730DB06F5D42B889B07F2D4337C7D
S1132E30002B79D1337F002B00D081E06B49086AE5
S1132E407A0003ABD35A03430B62B378082B00D147
S1132E5086E001A933780B7006ABDF5D3800644B64
S1132E6098473800634B98473189B3880B43B1784E
S1132E70B279114319437378002B02D080231B01CC
S1132E8019432268D37B5BB2002BFBDB2980717B67
S1132E904B1E99418900B37B002B01D001231943B8
S1132EA02268D37B5BB2002BFBDBFF232B71002951
S1132EB005D02268D37B5BB2002BFBDB6971B17A4E
S1132EC0F37A002B01D010231943337B002B01D05C
S1132ED0202319432268D37B5BB2002BFBDBA9714F
S1132EE02268D37B5BB2002BFBDB2379042B3FD01E
S1132EF0082B5ED01720002B00D08BE7D37B5BB26E
S1132F00002BFBDB338D2B822268D37B5BB2002B3F
S1132F10FBDB738D2B832268D37B5BB2002BFBDB43
S1132F20B38D6B83002075E702A901238B70002207
S1132F30CA70327E0A704B70307D2F4B984779E708
S1132F4002A901238B700022CA702432B2181278AD
S1132F500A704B701F33F3181878274B98476DE7A6
S1132F60086A7A1C520003ABD35A03430B6270E71E
S1132F70D37B5BB2002BFBDB2823F35C2B7422682E
S1132F80D37B5BB2002BFBDB2923F35C2B7522681C
S1132F90D37B5BB2002BFBDB2A23F35C2B7622680A
S1132FA0D37B5BB2002BFBDB2B23F35C6B76002023
S1132FB030E7D37B5BB2002BFBDBB36A2B61226867
S1132FC0D37B5BB2002BFBDBF36AAB612268D37B60
S1132FD05BB2002BFBDB336BEB6100201AE7C046CE
S1132FE0812D0000DCB60000042500200004004010
S1132FF0412B0000B52A0000392C00000268D37B65
S11330005BB2002BFBDB0379042B05D0082B0BD020
S11330101720002B04D07047C9B211740020FAE7BE
S113302089B211820020F6E711610020F3E70268FB
S1133030D17B1523C90601D51800704713889B0757
S11330400FD5D37B5BB2002BFBDB3B231373937352
S1133050138802218B4313800168CB7B5BB2002B66
S1133060FBDB138801210B4313800023E4E7FEE715
S1133070F8B52A4A2A4B9A4211D01A00294B9A428F
S11330800DD2294A03339B1A9B0801339B0000226B
S1133090234822498C58845004329A42FAD1234A54
S11330A0234B9A420AD2D34321495B1803218B4311
S11330B004339B18002102C29342FCD11D4AFF2114
S11330C01D4B8B439360FD3990235B001B4AD15009
S11330D01B4AD3780325AB4302242343D370D3780C
S11330E00C27BB4308263343D370164B987B3022FE
S11330F09043202210439873997BB94331439973C9
S11331009A7BAA4322439A730F4A536880210B4344
S113311053600E4B98470E4B9847FEE760F900004A
S113312000000020340100200400002034010020AD
S1133130C03B002000ED00E00000000000700041F2
S113314000500041004800410040004191A20000AD
S1133150355C0000F0B5C64600B50C00904600286A
S11331600FD1002A11DD8F18094E0A4D3068210055
S11331702B6898470134BC42F8D1404604BC9046C1
S1133180F0BD01235B429846F7E78046F5E7C04669
S11331902025002018250020F0B5C64600B50E00F5
S11331A015000138022810D8002A11D000240C4B35
S11331B098460C4F43461868315D3B689847002891
S11331C008DB0134A542F5D106E00124644203E0A2
S11331D0140001E001246442200004BC9046F0BDC8
S11331E0202500201C2500200300064A1268002A1E
S11331F004D0044A1068C318136070470249014A96
S11332001160F6E78C010020C05B002001204042E1
S1133210704780239B014B6000207047012070475A
S1133220002070470020704700207047C0780028B5
S113323000D0E220704700207047000010B5002243
S1133240064B1A700078002800D110BD0448054BC5
S113325098470548054B9847E220F6E79009002077
S113326048BF000035A400004CBF000019A30000B3
S113327010B50400C078002800D110BD0448054BE7
S11332809847A27821880448044B9847E220F4E741
S113329048BF000035A4000028BD000019A30000A9
S11332A0F8B505000188284B002404E00134E4B299
S11332B07C33082C31D01A898A42F7D11A005E3245
S11332C01278062AF2D1AE78002E32D11F48204B54
S11332D098472048204B98471B4963011A1B9200CA
S11332E08A1810005E3008270770E8781075AA78ED
S11332F01C1BA4000C1922760122184B1A7016E02C
S1133300124E3000124DA8471248134CA04730000B
S1133310A8471348A047E22609E0AB78002BEFD07A
S11333200A480B4B98470F480B4B9847E22630004E
S1133330F8BD054B6201111B890059180E760B006C
S11333405E3307221A70EBE72425002048BF0000F3
S113335035A4000030BC000019A300007000002058
S113336054BC00001CBC000010B50448044B984732
S11333700448054B9847002010BDC04648BF0000D4
S113338035A4000030B9000019A3000010B50448AA
S1133390044B98470448054B9847002010BDC0468D
S11333A048BF000035A4000018BB000019A30000AA
S11333B0F0B5DE4657464E46C0B582B00700364CDF
S11333C02600143625005E35F8239B009946A14457
S11333D00BE0019B1B7D002B18D001235246137078
S11333E07C347C367C354C4543D0019422893B881F
S11333F09A42F5D1AA462B78052BEAD0082BE8D0BF
S1133400072B32D89A0025498A5897469B4653463B
S11334105A461A704A2200213000214B9847122242
S1133420002101981E4B9847019A594691744023F4
S11334301376D5E7FA78052A0ED0072B0CD0002393
S113344052461370174B1B78002BC9D0154A1378BA
S1133450013BDBB21370C3E74A2200213000104B5A
S113346098474023019A1376E9E7002352461370E4
S1133470B6E701220C4B1A700C480D4B98473A885A
S1133480F9780C480C4B9847002002B01CBC9146BC
S11334909A46A346F0BDC04624250020FCB6000091
S11334A009A30000042900207000002048BF000088
S11334B035A400003CBB000019A3000010B5164B56
S11334C01B68132B0CD91548154B98471548164BF8
S11334D09847164B9847E223002814D1180010BDD2
S11334E00D4C226893009B18DB009B18104A9B1814
S11334F02922010018000F4B9847236823680133E1
S113350023600023EAE70548054B98470A48064B21
S11335109847E223E2E7C0460022002048BF0000AB
S113352035A40000F8BE000019A30000796B000068
S1133530AC290020F7A2000030BF000010B50088BD
S1133540782301220121024CA047002010BDC0466F
S1133550B96B0000F0B5D6464F464646C0B584B0B8
S1133560050006886A490A00002303E001337C321F
S1133570082B20D01089B042F8D110005E300078BA
S11335800228F3D162485A01D41AA40004195E3403
S113359006222270F93213405A01D21A920082187C
S11335A0127DD0070AD45A01D21A9200584B9B18A4
S11335B05E3302221A702888002319E0E878002874
S11335C0F1D05901C91A89001A31514BC9182888F8
S11335D0504B9847002859D04F48504B9847504873
S11335E0504B9847E22051E001337C31082B4CD0FA
S11335F0DEB20A898242F7D10A005E321278022AC8
S1133600F2D15A01D21A9200414CA4185E3403221A
S1133610227001AA02211172E9789170012151707E
S1133620042010700020D0709171D1710F3151714C
S11336301171072E2AD8FF261E4073019B1B9B0085
S1133640334A9B5C022B27D073019B1B9B00304A9F
S1133650D3181B7E402B24D07201921B920060323F
S11336602B4E92192888002301A92F4CA04700282B
S11336700CD001AB00229A705A702748274B984708
S11336802A48284B9847E22000E0002004B01CBCE4
S113369090469946A246F0BD01AB03229A71DA71B5
S11336A0D2E77701BF1BBB0098461C0060341300AF
S11336B0A4184246683292469A441D4B99460F27F5
S11336C0C84738402070C8473840A0740134544576
S11336D0F6D1474670370E4BFF18154B99460F230A
S11336E09846C8474346184020700134A742F8D191
S11336F00F4B9847064A71018B1B9B00D3187033FC
S11337001880891B890052187A3210231370A3E79A
S1133710242500201D81000048BF000035A40000BE
S113372030C0000019A30000317F000048C0000031
S113373049A40000F0B5D6464F464646C0B584B00D
S113374006000088494A002303E001337C32082B39
S113375049D0DDB211898142F7D111005E31097877
S11337600229F2D15A01D21A9200404CA4185E34B4
S11337700322227001AA1172013991705170002044
S11337801070D0709171D1710F3151711171072D79
S11337902AD8FF251D406B015B1B9B00334A9B5CB1
S11337A0022B27D06B015B1B9B00304AD3181B7E76
S11337B0402B24D06A01521B920060322B4D5219C7
S11337C03088002301A92A4CA04700280CD001AB63
S11337D000229A705A702748274B98472748284B4D
S11337E09847E22000E0002004B01CBC90469946B3
S11337F0A246F0BD01AB03229A71DA71D2E76F01E0
S11338007F1BBB0098461C0060341300A41842467A
S1133810683292469A441B4B99460F27C847384052
S11338202070C8473840A0740134A245F6D14746F9
S113383070370E4BFF18134B99460F239846C84711
S11338404346184020700134BC42F8D10D4B9847D0
S1133850064A69014B1B9B00D31870331880491B1F
S1133860890052187A3210231370A3E7242500200C
S1133870317F000048BF000035A40000D0BE000026
S113388019A3000049A40000F0B585B00500414B20
S11338901A6802929A8802AB9A8001AC0422010051
S11338A020003D4B9847E378002B0BD080235B002E
S11338B001AA52889A4244D001AB9B78012B60D074
S11338C0002054E03548364B98473648364B9847E5
S11338D00024364EE7B23648B0470200FF280CD029
S11338E03038C0B2092823D9052FF4D92B482C4BE2
S11338F0984730482C4B984729E0284F3800284EE9
S1133900B0472D48284CA0473800B0472B48A04763
S1133910288813212A4B98470300E220002B26D045
S11339201E481F4B984727481F4B9847E2201EE02C
S113393002ABE2541000244B98470134062CD5D036
S1133940C8E71648164B98472048174B9847002459
S113395002AE1D4FA05DB8470134062CFAD101AB6D
S11339609978288802AA1A4B9847002801D105B0F3
S1133970F0BD0A480A4B984716480B4B984700205D
S1133980F5E70648064B98471348074B984700202D
S1133990EDE7C04630B80000F7A2000048BF0000C1
S11339A035A40000ECBD000019A300008548000008
S11339B030750000BCBE000014BE000020BE000034
S11339C0996B000034BE00004DA3000050BE0000FF
S11339D06180000088BE0000A0BE0000F8B50600AB
S11339E0364B1B78002B04D10088354B0022002471
S11339F00FE00C2201003348334B984700222F4B31
S1133A001A70002034E00134E4B201327C33082C13
S1133A1019D0150019898142F5D119005E31097850
S1133A200129F0D9264A6B015D1BAD0055195E359D
S1133A3006232B7063011B1B9B00D2187032128863
S1133A4073889A4215D0214F3800214EB04721483F
S1133A50214DA8473800B0472048A84763011C1BE4
S1133A60A400174B1C19208905211D4B9847E220FF
S1133A70F8BD6101091B89007231114BC918301D51
S1133A800822184B98470028DDD16201131B9B00C4
S1133A9060330B495B18141BA4000C19217D30887A
S1133AA00122114CA0470028E2D00848084B98474F
S1133AB00E48094B98470020DAE7C046FC1D002059
S1133AC02425002008290020F7A2000048BF000098
S1133AD035A400006CBB000019A30000A4BB0000C7
S1133AE0996B0000D9A2000099810000FCBB000082
S1133AF010B582B001A8194B9847002825D1019B25
S1133B001A0F062A0FD01648164B98470122062191
S1133B101548164B9847002301936846144B984761
S1133B20019802B010BD1B011B0F012BEBD10C48F7
S1133B300C4B984701990B041B0C0A01120F01321C
S1133B40090F0C48094CA047E7E70548054B98477F
S1133B500948064B984700230193E1E7056C0000F0
S1133B6048BF000035A4000084BF000019A3000072
S1133B70216C000060BF0000E0BF000010B5002A07
S1133B8000D1D3E0062900D9D2E08900704B5B58FC
S1133B909F4600236F4C07E0002800D1CAE00128AB
S1133BA00FD00133052B12D0990009598A42F3D062
S1133BB00029F6D10028F4D19B0066495A5001210E
S1133BC04EE09B000021634A9950013148E00021F6
S1133BD046E00023604C07E0002800D1ACE0012857
S1133BE00FD00133052B12D0990009598A42F3D022
S1133BF00029F6D10028F4D19B0057495A500121DD
S1133C002EE09B000021544A9950013128E0002104
S1133C1026E00023514C07E0002800D18EE0012863
S1133C200FD00133052B12D0990009598A42F3D0E1
S1133C300029F6D10028F4D19B0048495A500121AB
S1133C400EE09B000021454A9950013108E0002113
S1133C5006E0434B1B689A4204D00021002B0BD092
S1133C60080010BD00286BD000210128F8D10022E3
S1133C703B4B1A600131F3E70028F1D1384B1A604D
S1133C800131EDE7374B1B689A4208D00021002B25
S1133C90E6D10028E4D1334B1A600131E0E7002873
S1133CA050D000210128DBD100222E4B1A600131B3
S1133CB0D6E700232C4C06E0002845D001280FD07D
S1133CC00133052B12D0990009598A42F4D00029F6
S1133CD0F6D10028F4D19B0023495A500121BFE7B3
S1133CE09B000021204A99500131B9E70021B7E730
S1133CF000231E4C990009598A4206D000290ED08F
S1133D000133022BF6D10021AAE700281ED0012896
S1133D10F6D19B000021154A99500131A0E70028F3
S1133D20EED19B0011495A50012199E7002197E7F0
S1133D30002195E7012193E7012191E701218FE714
S1133D4001218DE701218BE7012189E7012187E723
S1133D501CB70000B0090020C4090020D8090020C5
S1133D60F0090020EC0900209C090020940900209F
S1133D70F0B5DE4657464E464546E0B591B00500DF
S1133D807D4CF8239B009946A1447C4B98464027E0
S1133D90FF267C2200212000C04722005E3200233F
S1133DA013702776A37426817C344C45F1D19A464E
S1133DB0734B52461A70734C80231B016360724B21
S1133DC02360724BA3608023DB00E360704A2261AE
S1133DD08022520162616F4AA261E36101239B4622
S1133DE057335A46E2546C486C4FB8476C486D4E92
S1133DF0B0476948B847E1231B03994619006A484C
S1133E00B0475C235A46E2542F220233E254013B6A
S1133E105246E2544B462366644B2364002101203E
S1133E20634B98470020634B98475B48B847624808
S1133E30B0472000614B984700280BD0564E300005
S1133E40564DA8475E48574CA0473000A8475D48E8
S1133E50A047FEE701235B42069306A85A4B984706
S1133E60002800D080E04C484C4B984706995748AE
S1133E704C4B98470120564B9847564A0021002046
S1133E80554CA047554A02210020A047544A062118
S1133E900020A04709215348534B9847002805D0D8
S1133EA03D483E4B984751483E4B984704AB5049D8
S1133EB00A008968049191890832998092799A71EB
S1133EC0002D0CD118004B4B984704AD002806D0A8
S1133ED03148324B98474848324B984704AD2E48F6
S1133EE02E4B98472B796A79A979287803906878BA
S1133EF00290A8780190E87800904048294CA047A7
S1133F0006AC0F2323703E4B63800722290007A8C9
S1133F103C4B98470023E37623776377A377E377D3
S1133F202384638480239B00A3842000364B98471A
S1133F30002805D01848194B98473448194B98471E
S1133F402800334B9847002805D01348134B984753
S1133F503048144B9847304B984711B03CBC9046BE
S1133F609946A246AB46F0BD0B480C4B98472B48EC
S1133F700C4B9847FEE7C0462425002009A3000007
S1133F80042900200C00002090010020FC190020CE
S1133F90FC090020001E002048BF000035A40000DA
S1133FA04CB9000019A3000070B90000ED4D0000E9
S1133FB0BD4C0000115F0000A8B90000BD680000FE
S1133FC0C0B90000E0B90000ED6B000024BA0000A5
S1133FD0054E0000B0BC00007D3B000000BD0000A9
S1133FE09CBC00003CBA0000D96700006CBA000019
S1133FF030B800000D68000084BA00009CBA0000CC
S1134000983A0000F7A2000031680000D4BA00001A
S1134010B9690000F8BA0000F13A000048BA00009B
S113402010B501220121064B9847002800D110BD8C
S11340300448054B98470548054B9847E220F6E7A6
S1134040DD80000048BF000035A4000010C000005F
S113405019A30000F0B5DE464F464646C0B5A6B0EB
S11340600400867A002E00D0E1E07848784FB84703
S113407023796279A17960780290A0780190E07840
S113408000907448744DA8477048B8472189734814
S1134090A847122221007248724B98472378002BBC
S11340A000D087E0704B9846002504946F4B9B46E4
S11340B0EFB20595072204994046D84700281CD042
S11340C001357C239C46E044082DF1D1684B1B78D4
S11340D0082B31D05E23644AD35C002B3BD0654A65
S11340E0012301271D001178002936D00137FFB2C2
S11340F001337C32082FF5D10FE05B48059D6A013E
S1134100531B9B00C3185E3302211970531B9B0081
S1134110C01812225249534B984707220499564813
S1134120524B9847002832D17B01DB1B9B004E4A3F
S1134130D31805229A743FE04448454B98474C4BAA
S11341401978C9B24D48444B9847208913214C4BE8
S11341509847E22673E0002500276B019846581B18
S11341608000414B99464844122221003D4B984718
S11341703F4A13780133DBB2137043465D1BAD0035
S11341802B004B445E331A0002231370C5E703224D
S11341903C4B1A707B01DB1B9B00334AD3180A2269
S11341A09A74033A00213448374B98472089374B97
S11341B0984744E0022B05D0072200212E48324BB9
S11341C098473CE0072221002B48284B98470028B9
S11341D0F2D08022002106A82B4B98472C4F0023B5
S11341E006AE1D001035ADB239001A00531C9BB247
S11341F00878B05401311A00AB42F7D17C37802BD8
S1134200EFD106AA21000820224B9847061E03D1AD
S11342100122214B1A7012E00C480D4B98471F489D
S11342200D4B984700221C4B1A70E22607E0074802
S1134230074B9847A17A1A48074B98470026300045
S113424026B01CBC90469946A346F0BD48BF00006A
S113425035A400004CB8000019A3000090B8000079
S113426098290020F7A2000024250020D9A20000EC
S113427004290020FE250020F4090020A8B800002D
S1134280996B00009009002009A300002140000060
S11342906A250020C56B0000FC1D0020E4B8000066
S11342A008B90000F0B5C64600B50378002B0ED15E
S11342B04C4D0024461C4C4F102229003000B847B6
S11342C000285ED00134E4B27C35082CF4D1474B8D
S11342D01B78082B1CD05E23454AD35C002B27D0C7
S11342E0444A012301241D001178002922D00134FD
S11342F0E4B201337C32082CF5D1002558E0620188
S1134300121B92003A4B9B185E3302221A7042E051
S113431039483A4B9847354B1978C9B23848394B24
S11343209847394B18891321384B9847E22055E0B8
S1134330002500242E4B98466F017E1BB600464490
S1134340122231493000324B9847284A13780133FE
S1134350DBB213705E36022333707D1BAD0045441F
S11343600833AB74012523E000222A4B1A702A4833
S11343702A4B984723E0244B1889294B984700205F
S11343802CE025006101091B8900194A52185E328C
S11343901378012BB3D916486B015A1B920082186B
S11343A00A219174100012221749194B98470125CC
S11343B01C4B1B78002BD7D000221A4B1A700020FC
S11343C0002D0BD0134B1B78002B07D063011C1B53
S11343D0A400074B1C19A37C0A2BCCD004BC904628
S11343E0F0BDC0466A250020D9A20000042900209F
S11343F024250020FE25002048BF000035A400002D
S1134400A8B8000019A3000098290020996B0000A7
S1134410F7A200007000002008290020DD39000008
S113442021400000FC1D002030B50D4A002303E0AC
S113443001337C32082B11D01D0014005E34247823
S1134440012CF5D914898442F2D15B015D1BAD00C6
S1134450034B5D19AB7C0B70002000E0E22030BD03
S11344602425002000B583B06B46D91D074B98471F
S11344700023002806D16B4607331B780A3B5842B9
S11344804341DBB2180003B000BDC046294400001C
S1134490F0B5C64600B507004588434B002200240A
S11344A005E00134E4B201327C33082C4FD0188982
S11344B0A842F6D119005E3109780329F1D15301DC
S11344C09E1AB600384B9B195E3305221A703D794B
S11344D0002D3FD13548364B98473648364B9847E0
S11344E03978314E63011A1B9200B218117539796B
S11344F01A1B9200B21811761C1BA400200036303F
S113450080193900223110222C4B984698472000FC
S113451046308019390032311722C0471A34A019A5
S1134520B91D1C22C04705225E23F2540BE01F4E26
S113453030001F4DA8471F481F4CA0473000A84714
S11345401F48A047E225280004BC9046F0BD3B79F3
S1134550002BECD063011B1B9B00134CE4185E344E
S1134560042323701148124B984739791548124B8C
S113457098477888144B984700250028E3D00B48C7
S11345800B4B984711480C4B984778881321104BD4
S11345909847051ED7D00548054B98470D48064B4C
S11345A09847E225CFE7C0462425002048BF0000F5
S11345B035A4000090BD000019A30000F7A200007C
S11345C0BCBD000060BD0000654400007CBD00006F
S11345D0996B000034BE0000F8B504000D003D28BE
S11345E075D88300404AD3589F46840000263F4F25
S11345F002E00436142E76D0F359002BF9D01B595F
S1134600002BF6D028009847F3E7143CE4B2A4004A
S11346100026374F02E00436142E64D0F359002BE1
S1134620F9D01B59002BF6D028009847F3E71E3C1D
S1134630E4B2A40000262F4F02E00436142E52D018
S1134640F359002BF9D01B59002BF6D028009847BA
S1134650F3E7283CE4B2284B1B68002B43D0A400AA
S1134660E358002B3FD0080098473CE02E3CE4B2CE
S1134670224B1B68002B36D0A400E358002B32D009
S1134680080098472FE0373CE4B2A40000261C4FF2
S113469002E00436142E26D0F359002BF9D01B590E
S11346A0002BF6D028009847F3E7393CE4B2A40085
S11346B00026144F02E00436082E14D0F359002BC0
S11346C0F9D01B59002BF6D028009847F3E70E4E7B
S11346D030000E4DA84721000D480E4B984730007E
S11346E0A8473000A847F8BD38B70000B00900203B
S11346F0C4090020D8090020F0090020EC0900209A
S11347009C0900209409002048BF000035A4000043
S11347107CBC000019A3000010B514220749084806
S1134720084B9847041E02D0E224200010BD044B1D
S113473018780249044B9847F7E7C046E02C00205C
S1134740AA29002069600000D945000070B582B034
S113475005000E0000226B46DA80064C6B46991D5C
S11347602800A0470028F9D16B4606331B88337014
S113477002B070BDDD21000070B505008CB2034E9F
S113478021002800B0470028FAD170BDB1210000F3
S1134790F0B591B08023DB05009300230193FF2241
S11347A069460A8100228B72CB7201242421684657
S11347B044540131445401314354013143540A9364
S11347C0053143540131435405930382C376027681
S11347D00277427613238376427780235B03039325
S11347E01A4B0C931A4B0D9301235B420E930F93B8
S11347F0E1235B020893174D174B1D60174A184BB2
S11348001A60184A184B1A606A4618492800184B4F
S11348109847184F3B6898680021174EB0473B688B
S113482058680021B0472E683000144B98471F2366
S113483018408440124B1C602A68D369002BFCD1B9
S1134840336802221343336011B0F0BD0200160036
S113485002001700042200202025002079470000D0
S11348601C2500204D47000018250020001400429C
S11348706D1E0000D0000020C1A40000DD1D00005A
S113488000E100E0F0B583B00400FF226B46DA805B
S1134890094E0A4D0A4F02E0013C0120B8476B461D
S11348A0991D3000A847002801D0002CF4D16B4694
S11348B0987903B0F0BDC04604220020DD21000039
S11348C0811700007047000010B5024B1878024BA6
S11348D0984710BD38220020DD4D000070470000CD
S11348E0F8B506000D00084C084F2A0031002000DE
S11348F0B8470028F9D1044D054C01212800A047F0
S11349000028FAD1F8BDC046EC2E00200123000097
S11349102123000010B501000148024B984710BD47
S1134920EC2E0020F122000030B591B005003E4B82
S11349301C68002C19D020003C4B98471F231840BA
S11349401E3B834080223A498B50374B1A68D36907
S1134950002BFCD12368022293432360324B1A6854
S1134960D369002BFCD1013323608023DB05009342
S113497000230193FF2269460A8100228B72CB72C5
S1134980012124206C4621540130215425316354E3
S1134990013163540A93053163540131635405931F
S11349A02382E3762276227762761323A3766277D4
S11349B0089590235B0303931E4B0C931E4B0D939E
S11349C01E4B0E931E4B0F93174D1E4C6A461E49E9
S11349D02800A0470028F9D1134D2C682000134B60
S11349E098471F2318401E3B8340114A13602A68CE
S11349F0D369002BFCD123680222134323600A4CA1
S1134A00013A12492000124DA84700221149200002
S1134A10A8473122A35C03210B43A3540E480F4B38
S1134A209847002011B030BDEC2E0020DD1D0000A1
S1134A3000E100E003000400030005000300060099
S1134A40030007006D1E000000080042C948000072
S1134A50D9220000C5480000382200201549000072
S1134A6010B50248024B984710BDC04638220020BA
S1134A701549000010B5014B984710BDAD17000053
S1134A8010B5014B984710BDED17000070477047F3
S1134A900B4B9B691B051B0F022B05D8094A516858
S1134AA0C0239B000B435360074A136904218B43C3
S1134AB013610222054B5A70BFF34F8F30BF70470A
S1134AC0002000410040004100ED00E000040040EF
S1134AD000207047F0B5D6464F464646C0B590B064
S1134AE001904D4B5E6A002E0AD0DB6C0020002B37
S1134AF005D010B01CBC90469946A246F0BD0126D4
S1134B00454B9A46B30098469C19E4005444012549
S1134B10656203AF00233B700022BB80BA713B8106
S1134B207A70BA72FA723A733A747B61BB613A77FB
S1134B303B627B623B857B85BB857D730833BB70A1
S1134B40BD733A00E1692000344B9847BB881B0AC7
S1134B509D403878324B98472900324B9847206261
S1134B60012149422000304B984743469B19DB0002
S1134B7052469A58D37B5BB2002BFBDB138802218D
S1134B800B431380B3009B19DB00234A9A58D37B51
S1134B905BB2002BFBDB80235371002201992000C0
S1134BA0224B98471C4FB500AB19DB00D859204B5A
S1134BB09847204B1A5C1F23134001210A009A4096
S1134BC01D4B1A60AB19DB00FB185A7E012002430F
S1134BD05A76AA19D200D2595173186AFA21890057
S1134BE0104B9847010020000F4B9847AD19ED007A
S1134BF0EA59D37B5BB2002BFBDB00231371B300B8
S1134C009E19F600044BF158CB7B5BB2002BFBDB07
S1134C104023537120006CE774000020BD2D000078
S1134C20292A0000519F0000FD2F0000992C00004C
S1134C30812D000074C0000000E100E070B50400A4
S1134C400D00FA218900006A0A4B98472900414364
S1134C502000094B98472268D37B5BB2002BFBDB17
S1134C60002313712168CB7B5BB2002BFBDB402359
S1134C70537170BD519F0000FD2F000010B504005A
S1134C800268D37B5BB2002BFBDB802353712000D3
S1134C90024B98470023636210BDC0462F300000CA
S1134CA00268D37B5BB2002BFBDB8023537170471C
S1134CB00122014B9A61704780440041F0B5CE4611
S1134CC0474680B585B0012800D0FEE71F4B9847C2
S1134CD001AC00239846A370012525700227677054
S1134CE0210020201A4B994698471A4EB56121009D
S1134CF02220C8470423994673613220164B9847F3
S1134D004B46B361E1204002144B98472000144BFA
S1134D10984724230193257243466360E772A57282
S1134D206572210004200F4B9847002204210E488D
S1134D300E4B9847002104200D4B98470D4B984784
S1134D40002005B00CBC90469946F0BD1517000034
S1134D50051A000080440041811700002949000021
S1134D60791900008D190000B14C0000551800009D
S1134D70811800008D4A000010B5002809D10129CE
S1134D8003D004220E4B5A6110BD04220C4B9A61CD
S1134D90FAE7012800D0FEE7012903D10122084BDC
S1134DA09A61F1E7064B1B6A10241C40054B984797
S1134DB00028E9D1002CE7D00122014B5A61E3E736
S1134DC080440041D14A000010B5024B1860024BE8
S1134DD0984710BD54220020614A000010B5024BD0
S1134DE01B68984710BDC0465422002010B5014BE3
S1134DF0984710BD2949000010B5014B984710BDD4
S1134E00DD480000014B18707047C0463A2200206C
S1134E1010B5094B1B78002B03D0084B1B69DB072B
S1134E2000D510BD064B98470028FAD1054B98478A
S1134E30054B9847F5E7C0463A22002080440041DC
S1134E40D14A0000914A00008F4A000010B5014B7E
S1134E50984710BDD54A000010B5014B984710BDC6
S1134E607D4C000070B504000D00044B98472900E8
S1134E702000034B9847034B984770BD754A0000C8
S1134E803D4C0000814A000010B50400034B9847D4
S1134E902000034B9847034B984710BD754A000008
S1134EA0A14C0000814A000010B5002803D1012064
S1134EB0024B984710BD024B9847FBE7551700007B
S1134EC081170000024B1B69012018407047C0463F
S1134ED08044004170B505000C00002804D04B1E2E
S1134EE0094A934201D9FEE7FEE7084B9847002898
S1134EF005D10122064B9A610530064B9847A1B2B1
S1134F002800054B984770BDFEFF0000C54E000009
S1134F108044004181170000E148000070B506009C
S1134F200C00002810D000290ED00A4D0EE00131EB
S1134F3004328E4209D01368002BF8D05868012837
S1134F40F5D11B68012BF2D170BDA84722000021C6
S1134F50F1E7C046114E00000C4B5B68002B0CD0EF
S1134F600A4BDB68002B07D0084B5B690020002B41
S1134F7000D07047023300E00123044ADB00D0185C
S1134F800121416000219950F3E7C0463C220020F2
S1134F90002802D00023436003607047002802D039
S1134FA04368012B00D070470360FCE7002802D05F
S1134FB04368012B00D0704700230360FBE7000027
S1134FC010B50548054B98470548064B98470122FC
S1134FD0054B1A70002010BD48BF000035A4000026
S1134FE0A4C1000019A300005822002030B583B0EA
S1134FF0444B19684B7E5BB2002BFBDB0B691F2211
S113500093430B614B7E5BB2002BFBDB4B7E5BB2AD
S1135010002BFBDB0B693C4A13400B614B7E5BB2FC
S1135020002BFBDB0B7B012213430B734B7E5BB228
S1135030002BFBDB4B7E5BB2002BFBDB0B7B0222EA
S113504013430B734B7E5BB2002BFBDB0120042567
S1135050022401E010420AD10B7EDBB202001A40A6
S11350601D4200D022431C42F4D02A43F2E74B7E77
S11350705BB2002BFBDB4B8B9BB26A46D3711B0AE2
S1135080137201230B760A7ED2B21340500701D566
S113509002200343920701D5042213435B0701D581
S11350A002230B76194D1A4C23786A46073212787C
S11350B0EA541848184B98472278A95C1748184BAB
S11350C0984723780133DBB22370B62B01D003B0A9
S11350D030BD144CB6230D4A21681348134DA8471C
S11350E02368B63323600022094B1A708022D2054C
S11350F00F4BDA610748084B98470E48084B98470E
S1135100E5E7C046FC310020FFFFFFF01C23002030
S1135110D223002048BF000035A4000090C4000042
S113512019A3000060220020B03100201903000000
S11351308044004184C4000070B50A4E0A4D0B4CF3
S11351400423320000212800A0470028F8D1054D8F
S1135150074E084CB08F04222900A0470028F9D13B
S113516070BDC046502F0020B03100202102000045
S1135170542F00206D750000F8B53A4B1868437E33
S11351805BB2002BFBDB03691F2293431C3A1343DE
S11351900361437E5BB2002BFBDB437E5BB2002BDF
S11351A0FBDB037B012213430373437E5BB2002BBF
S11351B0FBDB437E5BB2002BFBDB037B022213434E
S11351C00373437E5BB2002BFBDB01210425022425
S11351D001E011420AD1037EDBB20A001A401D42EB
S11351E000D022431C42F4D02A43F2E7437E5BB250
S11351F0002BFBDB448BA4B201230376027ED2B2E4
S11352001340510701D502210B43920701D5042213
S113521013435B0701D502230376134DDC2060435F
S11352203321124B984758382870114E3000114FD3
S1135230B84721001048114CA0473000B8472978DE
S11352400F48A0470F4FB4267600B85B012229000F
S11352500D4B98470D4C2070B95B00200C4B9847C0
S11352602070F8BDFC310020CB00002065A00000B8
S113527048BF000035A40000ACC3000019A300001F
S1135280C0C30000542F00206D750000AC31002015
S11352903D77000010B58EB001AA00230021937160
S11352A01381002050709172D172117391735173F4
S11352B0117453619361117713625362138553859B
S11352C0938504339370013B1370A023DB00938018
S11352D032212923D1540C4C0C4920000C4B984703
S11352E02268D37B5BB2002BFBDB138802210B43C8
S11352F01380054B1A68D37B5BB2002BFBDB802346
S113530053710EB010BDC0462C2F0020002C00425B
S1135310BD2D000010B50C4C00220C4920000C4B94
S1135320984720680B4B98470B4B1A5C1F2313407C
S1135330012211009940094B1960637E01210B433E
S1135340637623685A7310BD2C2F0020ED4F0000A4
S1135350992C0000812D000098C4000000E100E0B9
S113536010B58CB06846194B984701226B461A70E9
S113537080235B0069464B80FE3B4B7000230B731C
S11353800293302168460171053943542C33C254C9
S11353900F4C6A460F4920000F4B98472268537EF2
S11353A05BB2002BFBDB802109040C4B19600F233B
S11353B093751376137802210B431370044B1A6808
S11353C0537E5BB2002BFBDB0CB010BD7D0A0000EA
S11353D0FC31002000400042C50A000000E100E06A
S11353E030B585B00023002207211248124CA04793
S11353F0124C20701248134B98471348134B98478C
S113540000230293124B0193C823DB000093002373
S11354100022012100200F4DA84720702378002B83
S113542001D105B030BD0648064B98470A48074BE2
S11354309847F6E7C40000200D6A0000AC31002054
S113544048BF000035A400004CC4000019A30000AC
S11354508F020000316A000060C4000010B50648E5
S1135460064B98470648074B98470022064B1A708C
S1135470064B9847002010BD48BF000035A400002B
S1135480BCC1000019A3000058220020E153000011
S113549010B5084A00210020074B9847074B1870A5
S11354A01B78012B05D00648064B98470648074B46
S11354B0984710BD2CC100007D3B0000AC3100209A
S11354C048BF000035A400007CC3000019A30000FD
S11354D0F0B5DE4657464E464546E0B5B5B02BA975
S11354E0B94B0A00180070C870C20068106027AA7F
S11354F090461A001032404670CA70C012680260AA
S113550023AA91461A002032484670CA70C0126815
S113551002601A0030321FA870CA70C0126802609C
S11355201A0040321BA870CA70C0126802601A00C8
S1135530503217A870CA70C0126802601A00603234
S113554013A870CA70C01268026070330FAA31CBFE
S113555031C21B6813609D4B0BAA180070C870C23F
S1135560006810601A00103207A870CA70C0126870
S11355700260203303AA31CB31C21B6813600226B8
S11355806B46BC229B181E700127AC3ABD206844B0
S11355908F4DA8478F4C904B636208232385638506
S11355A0A670E01C10224146A8471A239B46A382FA
S11355B0B623E383112398460F334246E254874BC4
S11355C0236609239A465B335246E2520233E2527F
S11355D0283BE65420003F3010224946A8470A23BE
S11355E0994646334A46E2520A330422E2520233CF
S11355F04246E2547A4A4033E250963BA022A352F8
S11356000232A3527433E65420007B30923A1FA92D
S1135610A8478C234A46E2520A33E75202334246F1
S1135620E254704A4033E25004330422E25202331B
S11356300422E252283BE6542000B73010221BA972
S1135640A847C8234A46E2520A33E7520233424685
S1135650E254654A4033E25004335246E252023384
S1135660E252283BE6542000F330102217A9A84741
S113567082235B005A46E2520A33E752023342461F
S1135680E2545A4A4033E250443BFF3BAA225200C0
S1135690A3520232A3522233FF33E65420003030A7
S11356A0FF30473AFF3A13A9A847A0235B004A46B4
S11356B0E2520A33E75202334246E2544C4A403340
S11356C0E250863BFF3BC8225200A3520232A3524F
S11356D06433FF33E65420006C30FF30833AFF3AE2
S11356E00FA9A847BE235B005A46E2520A33E75289
S11356F002330122E2543F4A4033E250BD3BFF3BB8
S1135700E6225200A3520232A3529B33FF33E654E3
S11357102000A830FF30BF3AFF3A0BA9A847DC238A
S11357205B004A46E2520A33E75202334246E254ED
S1135730314A4033E25004335246E2522F4BE25294
S1135740283BE6542000E430FF30102207A9A84784
S1135750FA235B004A46E2520A33E75202334246D6
S1135760E254274A4033E2500B2391229200A35281
S1135770244AA352244BE654244BE018102203A9D4
S1135780A8478C239B005A46E252214BE75202332E
S11357900122E2544B4601930094002300221D4948
S11357A02FA81D4CA047002806D135B03CBC90461C
S11357B09946A246AB46F0BD1848194B984719487C
S11357C0194B9847F1E7C0467CC00000FCC00000BC
S11357D0F7A20000542F0020B4C20000C0C2000091
S11357E0CCC20000D4C20000DCC20000E8C2000049
S11357F0F8C2000000C3000010C300000A02000049
S11358001CC30000460200001E0200001F0200002C
S11358103A0200004A2F00200975000048BF00002A
S113582035A4000028C3000019A30000B520054AD0
S1135830835CFF2B02D101380028F9D1434258413F
S1135840C0B2704764220020F8B5042500240F4E2E
S11358500F4FB623320029000E48B847B621300056
S11358600D4B9847002806D10134A4B2B6350B4B32
S11358709C42EED109E00A4D2C800A480A4B984715
S1135880298889B209480A4B9847F8BD6422002048
S113589021020000B03100202D58000076150000D0
S11358A05C22002048BF000035A4000058C300005B
S11358B019A3000070B5294B1B88294A12889BB292
S11358C093422AD2254D2988264CB62359430431C4
S11358D022002548254EB0472548264B98472648A0
S11358E0264B9847264E3088B6222100254B9847F0
S11358F0254C207031880020244B984720702B8839
S113590001339BB22B802378002B1FD01848194BEE
S113591098471F48194B984718E01E4900230B70FD
S1135920174EF025705B0122164B9847164C2070D9
S1135930715B0020154B984720702378002B06D10B
S11359400B480C4B984714480C4B984770BD0848BB
S1135950084B98471148094B9847F1E75A22002011
S11359605C22002064220020B031002021020000CB
S113597048BF000035A40000D8C3000019A30000EC
S1135980542F00206D750000AC3100203D770000DD
S1135990E8C30000482F002040C400000CC40000ED
S11359A0F8B5D6464F4680B504007823704AD05ADD
S11359B06388834223D0B4236D4AD05A63888342D8
S11359C000D192E096235B00694AD25A63889A42D6
S11359D000D1BBE0D2235B00654AD25A63889A4265
S11359E000D1B6E0F0235B00614AD25A63889A4240
S11359F000D1B1E000200CBC91469A46F8BD5D4D43
S1135A00002229005C4B98475C485D4B98472978F5
S1135A105C485D4B98472B78312B1CD05748584B2A
S1135A2098475A48584B9847594B1A68D37B5BB2EE
S1135A30002BFBDB8023537101215648564B9847BA
S1135A40564B1B78002BB6D04C484D4B98475448C6
S1135A504D4B9847AFE74948494B984751484A4B03
S1135A6098474C4E4C4D00213000A8470028FAD1ED
S1135A704D4B9847474E4D4D3000A8470028FBD169
S1135A804B4E3B4B988F002231003B4B98473B4891
S1135A903B4B9A469847316846483B4B9946984752
S1135AA0454D00272F600423320000213948434E1E
S1135AB0B0473248D0474248C8472B6804332B606C
S1135AC0404B1F70324D002128003F4B98472A68F5
S1135AD0D37B5BB2002BFBDB00231371D37B5BB264
S1135AE0002BFBDB40235371AAE7384D0022290029
S1135AF0214B98472148224B984729783448224B18
S1135B0098472B78312B11D01C481D4B98473148AE
S1135B101D4B9847214B1B78002B00D152E71748A7
S1135B20174B98472C48184B98474BE71348144B8E
S1135B3098472A48144B9847294B98471A4B98473B
S1135B400022284B1A80284B9847E3E7264B9847B6
S1135B5040E7264B984745E7254B1B78002B03D09D
S1135B600022234B1A7045E70122214B1A7041E7AA
S1135B70542F00204C2F0020B575000048BF0000B2
S1135B8035A40000D8C1000019A3000030C20000F1
S1135B902C2F0020B031002001090000AC3100207E
S1135BA044C20000F0C10000395100005507000054
S1135BB0502F002004C200006022002019030000BE
S1135BC014C20000D2230020FD2F0000F831002071
S1135BD064C200008CC200009CC2000078C20000B5
S1135BE0495800005A220020B5580000795100009D
S1135BF01A23002010B5084A02210020074B9847B9
S1135C00074B18701B78012B05D00648064B9847A4
S1135C100648074B984710BD7CC100007D3B00003F
S1135C20AC31002048BF000035A400007CC3000054
S1135C3019A30000F0B5D6464F464646C0B590B00D
S1135C408A4B984702AC01252570002303930493E3
S1135C5023746374A574E57423752422A354183A39
S1135C60002108A8824B9847824BA36180235B02E2
S1135C70E360814BA36201235B42E3627F4B2363B6
S1135C807F4B63637F4E22007F4930007F4B9847F0
S1135C90346820007E4B98471F23184085407D4B75
S1135CA01D603368DA69002AFCD123680232134389
S1135CB02360794C0423237109336371714B23608E
S1135CC001A901234B7000228A700B700D20734BC5
S1135CD0984762795309D0090021002802D1DB01D9
S1135CE06F4959181F231340012422009A408A61E6
